:100000000C94B3000C94FA000C94FA000C94FA00CF
:100010000C94FA000C94FA000C94FA000C94FA0078
:100020000C94FA000C94FA000C949A170C946E1825
:100030000C9475120C94FA000C94FA000C94FA00CB
:100040000C94FA000C94FA000C94FA000C94FA0048
:100050000C94FA000C94C0120C94FA000C94FA0060
:100060000C94FA000C94FA000C94FA000C94FA0028
:100070000C94FA000C94FA000C94FA000C94FA0018
:100080000C94FA000C94FA000C94FA000C94FA0008
:100090000C94FA000C94FA000C94FA000C94FA00F8
:1000A0000C94FA000C94FA000C94FA001E001F0045
:1000B0002000210022002300240025002600040344
:1000C000300000001803420044004E0039002000B8
:1000D0005200650076002E002000310000000E0363
:1000E0004B0065006500620069006F0000000403BA
:1000F000090409022200010100A0FA09040000011C
:1001000003010100092111010001224000070581BE
:100110000308000A120110010000000810CB33117F
:1001200000010102030105010906A101050719E00B
:1001300029E71500250195087501810295017508CB
:1001400081010507190029FF150026FF0095067596
:100150000881000508190129059505750191029589
:100160000175039101C011241FBECFEFDAE0DEBF9D
:10017000CDBF04B603FE27C08091A5019091A601D2
:10018000A091A701B091A8018730904BA740B04B38
:10019000D1F41092A5011092A6011092A70110921D
:1001A000A80114BE84B7877F84BF0FB6F894A895C2
:1001B00080916000886180936000109260000FBEA3
:1001C000E0E0F8E3099511E0A0E0B1E0E4E2F5E356
:1001D00002C005900D92A631B107D9F721E0A6E142
:1001E000B1E001C01D92A53AB207E1F70E94EC14FC
:1001F0000C94681A0C94000060E070E0CB010E943F
:100200005F110C946B1181E0089581E008950C94C6
:10021000050108950C9409011F93CF93DF9300D03B
:1002200000D00F92CDB7DEB749835A836B833091EC
:10023000270189819A8131111DC06623B9F02223DB
:10024000A9F00E94ED0F182F682F89819A810E94D2
:10025000980F69817A81812F0F900F900F900F90E6
:100260000F90DF91CF911F910C94BC010E94C50F9C
:10027000182FEFCF0E94ED0F69817A81EDCFFC013D
:10028000262F408151816281738184810C940C01FD
:10029000CF93DF93EC0160E00E943F01BE01DF914C
:1002A000CF910C940A010E943111811102C00E9469
:1002B000C7110C94A6030C94A90308950C945D0136
:1002C00081E008950C946001CF93C82F0E945E01D5
:1002D0008C2FCF910C94620108950E94FF0A0E9416
:1002E0006C012FEF84E39CE0215080409040E1F7C7
:1002F00000C000000C94E4120F931F93CF93DF9380
:10030000EC0161E00E943F018C01BE010E940701E7
:10031000882329F1BE01C8010E940C058823F9F049
:10032000BE01C8010E945E058823C9F0BE01C80154
:100330000E948106882399F08A81882339F001156B
:100340008CE5180751F00E3D1C4579F0CE01DF9188
:10035000CF911F910F910C9403010E946D0180E0D9
:10036000DF91CF911F910F9108950E94C711F7CF90
:1003700090E080E008950895972F70E023E0929F29
:10038000600D711D1124FB0199E0899FE00DF11DA5
:100390001124EE0FFF1FE455FF4F859194910895AE
:1003A000FC01EE0FFF1FE254FF4F859194910895D9
:1003B000CF93DF930E94BC010E94CB02EC01811518
:1003C00021E59207D0F5811530E5930708F096C036
:1003D00081159042F8F4C11581E0D807B8F4C03E09
:1003E000D10588F4C03CD10508F07BC0C130D105EF
:1003F00069F0209759F0CE010497813A910530F0C9
:10040000D0E0C0E003C0C83ED105D0F7CE01DF91F7
:10041000CF910895C11590E4D90708F06CC0CE01C2
:100420009F70C11520E3D20708F45EC0CE01992762
:10043000D3FF5EC0EC01D86CE9CF811535E5930799
:1004400000F5811544E5940708F08DC0C11583E5DA
:10045000D80708F074C0C11592E5D90708F46AC03E
:10046000CE018370992721E030E002C0220F331FB4
:100470008A95E2F7C695C69580E2C89FE0011124EF
:1004800055C0811529E59207A0F4811538E5930739
:1004900008F06EC0811546E5940708F0B1CF0E94C0
:1004A0006203C82FD0E0DC2FCC27CC27DF71D062CD
:1004B000ADCFC1158AE5D80708F45FC0CE019056CC
:1004C0008115904208F09CCF8D2F8F710E9462039E
:1004D00090E0982F882788279F719C012C2BE90199
:1004E000E6CFCE01805C91090E94D001EC018ECF55
:1004F000EC01D06C8BCFDF70D06A88CFE4E09695AA
:100500008795EA95E1F783702C2F26952695237021
:1005100040E2249F90011124382B8C2F8370C1E07E
:10052000D0E002C0CC0FDD1F8A95E2F7C22BD32B9F
:10053000DC686CCFDC2FCC27C16FD06A67CFCE01CF
:100540008370992721E030E002C0220F331F8A9583
:10055000E2F7C695C69590E2C99FE0011124C22B2F
:10056000D32BDA6853CFD82FCC27C46FD06A4ECFA5
:10057000D82FCC27C06FD06A49CF8C2F8F700E94A4
:10058000620334E0D695C7953A95E1F7CF709C2F7A
:10059000EC01D0693BCF82389105B1F1B0F48133E1
:1005A000910509F475C048F48932910509F469C0D0
:1005B0008A32910509F473C008958533910509F4D1
:1005C00059C08933910501F10895833E9105A9F140
:1005D00038F4803E9105F9F0823E910549F1089585
:1005E000863E9105A9F1873E9105C9F1843E9105AA
:1005F00019F52091970121FF1FC08091960184FD7C
:1006000014C087EE90E00895209196012370A1F028
:1006100080EE90E008952091960120FD47C0309132
:10062000970130FF09C024FF44C090E080E004C07F
:100630002091960122FDF7CF08952091960122FD89
:100640003BC03091970130FDE3CF24FFF5CFEDCFD4
:100650002091960123FFF0CF24FDE7CFD2CF209148
:10066000960123FD2CC03091970131FFEECF84EE2F
:1006700090E008952091960125FFDECF89E290E079
:1006800008952091960125FFD7CF85E390E0089546
:100690002091960126FFD0CF8AE290E00895209124
:1006A000960126FFC9CF81E390E0089589E390E0A9
:1006B000089583EE90E0089582EE90E0089586EE2E
:1006C00090E008959091960192FF06C0282F28711E
:1006D0002830F9F4877F846093FF06C0282F2871A3
:1006E0002831F1F4877E84612091970120FF06C0B4
:1006F000382F38713830D9F4877F816021FF06C0E8
:10070000282F28712831D1F4877E816194FD877E5E
:100710000895282F24712430F9F68B7F8860DCCF70
:10072000282F2471243101F78B7E8861DDCF382F8B
:100730003171313019F78E7F8860E0CF282F217119
:10074000213121F78E7E8861E1CF08950C94A503B5
:1007500008950C94A803E82FF0E0E157FE4F808144
:1007600008950895FF920F931F93CF93DF932DE089
:1007700031E066E171E0C1E0D0E0D90150E040E055
:100780008D918F3F91F0E82FE295EF70F0E0F1A0AE
:100790008F708E0101C0000F8A95EAF7902F909517
:1007A0009F2191A382A1802B82A34F5F5F4F433093
:1007B000510531F72D5F3F4F62177307F1F6109225
:1007C0008C0110928F0110928D0110929001109265
:1007D0008E011092910183E00E944A04DF91CF9133
:1007E0001F910F91FF900C945301EF92FF920F9382
:1007F0001F93CF93DF93ECE8F1E06DE071E0C0E090
:1008000001E010E07B0150E040E030E0D7012D91A5
:100810007D012F3FB9F0822F82958F7090E0DC012F
:1008200090968C9190E02F7002C0959587952A95AF
:10083000E2F780FD2BC0C801042E01C0880F0A9486
:10084000EAF7382B4F5F5F4F43305105F9F680814F
:100850008317F1F0308381E0C82B31966D5F7F4FB5
:10086000B1E066317B0771F62C2F43E06FE871E051
:100870008CE891E00E944B040E945B018C2FDF9179
:10088000CF911F910F91FF90EF90089580E0D9CF05
:1008900080E0E2CF0895FF920F931F93CF93DF93F1
:1008A000F82E092F162FD72FC42F222349F081E0CD
:1008B000809318010E94A51290931701809316014E
:1008C000809118018823A1F0809116019091170161
:1008D0000E94B112069760F0EF2DF02FA12FBD2FCF
:1008E000CE0FDF2FD11DEC17FD0741F41092180138
:1008F000DF91CF911F910F91FF90089581918D937A
:10090000F2CFAF92BF92CF92DF92EF92FF920F930E
:100910001F93CF93DF937C015B01C42FD22FFC0187
:1009200082818823F9F040931B010E94A5129093C5
:100930001A018093190180E28C0F883008F061C0A1
:10094000C77081E001C0880FCA95EAF7DF91CF91A7
:100950001F910F91FF90EF90DF90CF90BF90AF90DD
:100960000C94B60810911B01141340C0809119011A
:1009700090911A010E94B1126C01B701C5010E9449
:10098000750DC816D90690F5C0E2CD0F1D17B9F048
:1009900080E2810F883040F4177081E001C0880F39
:1009A0001A95EAF70E94BD08C83048F481E09D2FEF
:1009B000977001C0880F9A95EAF70E94B608802FB9
:1009C0000E94A308C830E8F4D77081E001C0880F06
:1009D000DA95EAF7DF91CF911F910F91FF90EF9099
:1009E000DF90CF90BF90AF900C94BD0880E28C0F49
:1009F000883038F4C77081E001C0880FCA95EAF7E3
:100A0000E9CFDF91CF911F910F91FF90EF90DF9091
:100A1000CF90BF90AF9008950F939C01CB01233FDF
:100A20004CE5340759F1A8F4283DFCE53F0701F1F6
:100A3000293D4CE53407D1F1273D3C4591F406E2D0
:100A400021EE41EE67ED7CE50E94810480E00F918C
:100A50000895253FFCE53F07E9F0B0F0263F3C450F
:100A6000F9F0FC018281882339F110921B01EFCF4C
:100A700007E225EE45EE68ED7CE5E6CF06E221EEE5
:100A800040EE63EF7CE5E0CF07E225EE44EE64EF55
:100A90007CE5DACF06E221EE42EE65EF7CE5D4CFCD
:100AA00007E225EE46EE66EF7CE5CECF08E221E0D8
:100AB00045EE69ED7CE5C8CF81E0C9CFCF93DF93E8
:100AC000EC01FB018281882309F419C1C230FCE5E5
:100AD000DF07C0F1C6319CE5D90730F09E012A5FDF
:100AE0003C452930310570F50E94441190939701DF
:100AF00080939601C031ECE5DE0709F4CFC008F021
:100B00005BC0C8308CE5D80709F4B6C088F5C4309E
:100B1000ECE5DE0709F4A8C0C0F4C2308CE5D807C4
:100B200009F49CC0809196018260C330DC4509F4D1
:100B300098C080919601909197010E9452110E9455
:100B4000FF0A80E0DF91CF91089580919601806146
:100B5000C630ECE5DE0709F484C080919601886018
:100B6000C730DC4508F47DC080919601806279C071
:100B7000CC308CE5D80709F489C070F480919601D7
:100B80008C60CA30ECE5DE0709F46BC008F478C06D
:100B9000809196018E7F65C0CE308CE5D80709F430
:100BA00079C0809196018B7FCF30DC4508F459C025
:100BB000809196018F7E55C0CB3FECE5DE0709F4AE
:100BC00057C030F5C3318CE5D80709F46FC078F40D
:100BD000C131ECE5DE0709F465C0C231DC4509F03E
:100BE000A8CF0E94FF0A809196018F773AC0C53145
:100BF0008CE5D80709F462C008F476C080919701AB
:100C00008160CA3FDC4509F094CF8093970191CF72
:100C1000CF3FFCE5DF0709F44DC088F480919701D0
:100C20008D7FCD3F9CE5D90781F3809197018E7F21
:100C3000CE3FDC4550F3809197018360E6CFC13011
:100C4000FDE5DF0709F459C008F444C080E0C23074
:100C5000DD4509F06ECF0E94C9116BCF80919601DE
:100C600081608093960165CF809196018460F9CF71
:100C7000809197018260C9CF809196018064F1CF05
:100C80000E94FF0A809196018068EBCF80919601C7
:100C90008D7FE7CF80919601877FE3CF809196018A
:100CA0008F7DDFCF809196018F7BDBCF8091960186
:100CB000837FD7CF809197018C7FA7CF80919601BA
:100CC00082FB992790F921E0922790FB82F990FB13
:100CD00083F9C7CF80919701982F909591708E7F5F
:100CE000892B90FB81F991CF0E94FF0A9091960188
:100CF000892F97FB87F98058B4CF81E0ACCF81E092
:100D000021CFCF93DF93EB0186319C4511F50E94F3
:100D100082109A81992399F08A7A91E009F490E0FF
:100D200090931C01811109C089E20E945D100E940C
:100D3000CE1080E0DF91CF91089585E3F6CF8091CA
:100D40001C01811104C089E20E946410F0CF85E388
:100D5000FBCF81E0EFCF9093220180932101089592
:100D6000E0912101F0912201309721F00190F08172
:100D7000E02D099480E00895E0912101F091220195
:100D8000309721F00280F381E02D0994089520919D
:100D90001F01309120012817390771F0909320012D
:100DA00080931F01E0912101F0912201309721F001
:100DB0000680F781E02D0994089520911D0130915E
:100DC0001E012817390771F090931E0180931D01B1
:100DD000E0912101F0912201309721F00084F1850A
:100DE000E02D0994089585B7806885BF85B7806830
:100DF00085BF0895089508950C94FA0608950C94FB
:100E0000FE060E94F3060E94FB060C94FC0681E09D
:100E100008950C9407070E949C120E94B2030E943E
:100E2000F5120C94FF06BF92CF92DF92EF92FF92E1
:100E30000F931F93CF93DF93CDB7DEB72A970FB6EB
:100E4000F894DEBF0FBECDBF0E94F5030E940907D4
:100E5000882309F464C034E2C32E31E0D32E10E0BD
:100E600000E0B02E802F0E94AB03E82EF601F19037
:100E70006F01F81609F44DC080917F0181FD0E9439
:100E8000B1038F2D8E25F82FF170FF2E80FD3BC012
:100E900081FD3BC082FF3DC082E024E0F22E8E83C4
:100EA000BF82EF2081E009F480E088870E94A512CC
:100EB0008160782F9A8789874E815F8168858A85CE
:100EC0000E94B007F801EC5DFE4F8081F826F082A9
:100ED0000E94B00690912301891791F10E94B006FB
:100EE000809323012A960FB6F894DEBF0FBECDBFC4
:100EF000DF91CF911F910F91FF90EF90DF90CF90F6
:100F0000BF900C94640180E0CACF81E092E0F92E9A
:100F1000C6CF0F5F1F4F0330110509F0A2CF8FEF2F
:100F200089838A831B820E94A5128160782F9D830A
:100F30008C8349815A816B818D810E94B007C8CF13
:100F40002A960FB6F894DEBF0FBECDBFDF91CF91CA
:100F50001F910F91FF90EF90DF90CF90BF90089579
:100F6000CF93DF93CDB7DEB72B970FB6F894DEBFE4
:100F70000FBECDBF4F83588769877A878B871E82C4
:100F80001D8285E0FE013796DE01119601900D92DB
:100F90008A95E1F749815A816B817C818D819E819F
:100FA0002B960FB6F894DEBF0FBECDBFDF91CF9169
:100FB0000C94780DFC01808191810C942F10CF93BB
:100FC000C82F882309F46EC08238C1F40E94B0068D
:100FD00081FD68C089E30E945D100E94CE102FEF52
:100FE00081EE94E0215080409040E1F700C0000085
:100FF00089E30E946410CF910C94CE108338A1F441
:101000000E94B00680FD4EC083E50E945D100E94E4
:10101000CE102FEF81EE94E0215080409040E1F718
:1010200000C0000083E5E5CF8438A1F40E94B0063B
:1010300082FD38C087E40E945D100E94CE102FEF21
:1010400081EE94E0215080409040E1F700C0000024
:1010500087E4CFCF8CEF8C0F813AB8F48C2F0E94AD
:10106000B11381111FC06C2F80910001909101017B
:101070000E94E011882329F08C2F0E9464100E94A6
:10108000CE108C2F0E945D10B6CF80E28C0F88307E
:1010900048F4C77081E001C0880FCA95EAF70E9442
:1010A0008510A9CFCF910895882309F44BC08238C9
:1010B00071F40E94B00681FF45C089E30E945D1073
:1010C0000E94CE1089E30E9464100C94CE108338E5
:1010D00059F40E94B00680FF35C083E50E945D1080
:1010E0000E94CE1083E5EFCF843859F40E94B006F9
:1010F00082FF28C087E40E945D100E94CE1087E422
:10110000E2CF9CEF980F913AF0F290E2980F98306E
:1011100050F4877091E001C0990F8A95EAF7892F02
:101120000E948B10D2CF9BE5980F933020F490E073
:1011300080E00C94C706885A873120F490E080E064
:101140000C94DD060895CF93C82F0E94DF07C933A2
:1011500049F42FEF87EE93E0215080409040E1F773
:1011600000C000008C2FCF910C945408882321F0EC
:101170000E9485100C94CE100895882321F00E94BF
:101180008B100C94CE100895BF92CF92DF92EF9205
:10119000FF920F931F93CF93DF936C01D62FC72F2E
:1011A000FC01158112951F70028101110E94A2108D
:1011B0000E947B10E82E882391F00023D1F08C2F21
:1011C000807F803421F080E28D0F883090F082E0C3
:1011D0000E9419110E947B1091E0E82EE926BC2E96
:1011E000B2949FE0B922EB2DF0E0E659F54E0C9455
:1011F000201AE12CF4CF1C2F1F70C07F11F0129524
:10120000107F0023A9F0112359F080E28D0F883060
:1012100010F0D11109C0812F0E9485100E94CE10BC
:101220008D2F0E94DF0714C0812F0E949510F6CFEA
:101230008D2F0E945408112359F080E28D0F8830C1
:1012400010F0D1112CC0812F0E948B100E94CE1063
:101250002B2D2850330B2430310520F40E94B0068A
:101260000E946401EE2009F477C10E94771080FD8E
:1012700073C1F60112820E9471100E94FC0EC60119
:101280000E94CD0A0E947110DF91CF911F910F91A2
:10129000FF90EF90DF90CF90BF900C941D0F812FA7
:1012A0000E949B10D3CFFC2FFF70FF2EC07FC03257
:1012B00019F0F29480EFF822DD2369F0D13049F182
:1012C000002391F1112351F1F601858180FFA8CF10
:1012D0008F70858323C0002381F0111106C00E9406
:1012E000B5108F290E94B608B3CF1130C1F70E9404
:1012F000B5108F290E94BB10ABCF111106C00E9400
:10130000C4108F2D0E94BD08A3CF113009F4A0CFC7
:10131000F6CF002329F0163008F09ACF8F2DE2CFB8
:10132000153008F095CFEDCF112359F3D93349F497
:10133000FFEF27EE33E0F15020403040E1F700C0EE
:1013400000008D2F0E94540883CF8C2F837009F0EA
:1013500041C001117DCF4D2F429546954770440FF6
:10136000440F0D2F0F7010E030E020E0042E04C079
:10137000000F111F221F331F0A94D2F760E070E0A4
:10138000CB01D4FF0FC06FE070E080E090E004C0BC
:10139000660F771F881F991F4A95D2F76095709541
:1013A00080959095C695C695C370602B712B822B46
:1013B000932BC23049F058F4C13019F00E94AE0EA0
:1013C00047CF0E949C0E44CF0E94C00E41CF0E9486
:1013D0009A0E3ECF8695002311F08C2F81708823C2
:1013E00009F436CF4D2F429546954770440F440F70
:1013F0000D2F0F7010E030E020E0042E04C0000F2D
:10140000111F221F331F0A94D2F760E070E0CB0156
:10141000D4FF0FC06FE070E080E090E004C0660F82
:10142000771F881F991F4A95D2F760957095809510
:101430009095C695C695C370602B712B822B932B0C
:10144000C23049F058F4C13019F00E94730F00CF38
:101450000E94610FFDCE0E94850FFACE0E94D60E2B
:10146000F7CECF70002329F08C2F0E94FC0E8D2F19
:1014700039CF8D2F0E94BD088C2F0E941D0FE8CE02
:10148000D23F89F160F4D03FC9F0D13F29F1002368
:1014900009F442C01111C4CE8C2F8F7121C0D33FEB
:1014A00039F1D43FA1F7002369F1CF718C2F0E944D
:1014B000FC0E63E08C2F0E940411CACE002341F081
:1014C000153008F0C5CE8C2F8F710E94400FC0CE12
:1014D000163008F0BDCEF7CF8C2F8F71002369F244
:1014E0000E94FC0EB5CE8C2F8F710023C9F3C5CF9F
:1014F000002329F08C2F8F710E94E70EA9CE0E9445
:10150000E20EA6CE81E00E941911123008F4A0CE9E
:1015100082E00E9419119CCE112359F0D93309F0B1
:1015200010CF8FEF97EEE3E081509040E040E1F77D
:1015300006CF8C2F8F71A1CF4C2F4F706D2FC6010E
:101540000E94B8010E94120E83CE4C2F4F706D2F57
:10155000C6010E94BB017CCEDF91CF911F910F91FC
:10156000FF90EF90DF90CF90BF9008950F931F935F
:10157000CF93DF93EC01688179818A810E943910D1
:101580008C010E94970F0E94990EB801CE01DF9145
:10159000CF911F910F910C94C408CF93DF93EC016E
:1015A0008B819C81892B29F08881998189238F3FA8
:1015B00059F4DF91CF910895CE010E94B60ACE0171
:1015C000DF91CF910C944801CE010E947C018111E2
:1015D000F3CF0E947B10882361F38A81882349F32B
:1015E00082E0DF91CF910C9419110E94A2100E9409
:1015F000B2100C94CE100E946B100C94F50A0E944D
:1016000092100C94FB0AE92FE295EF70E250EE3055
:1016100070F4F0E0E658F54E0C94201A803F19F073
:1016200020F4883E20F481E00895843FE1F380E0D7
:101630000895883EC0F3813FD1F7F5CF93FB88270B
:1016400080F908950E942F100C94030BCF93DF9321
:1016500000D000D00F92CDB7DEB70F900F900F9053
:101660000F900F90DF91CF910895CF93DF9300D02B
:1016700000D000D0CDB7DEB726960FB6F894DEBF07
:101680000FBECDBFDF91CF9108951F93CF93DF930E
:10169000C091280116E0809129018C1304C0DF91CC
:1016A000CF911F910895D0E01C9FF0011D9FF00D78
:1016B0001124E65DFE4F40815181628173818481F6
:1016C00095810E94350B2196C770E5CF40915A0154
:1016D00050915B0160915C0170915D0180915E01B0
:1016E00090915F010C94350B1F93CF93DF93809102
:1016F0005F01807FA9F480915C01882389F080914B
:101700002801C091290160915A0170915B01A0915B
:101710005D01B0915E01D62FD72316E0C81304C037
:10172000DF91CF911F91089590E0109711F0DF3F66
:1017300019F401968770F2CF189F9001199F300D10
:101740001124F901E65DFE4F41814713F2CF40813C
:101750004613EFCF42814111ECCF438154814A1BA4
:101760005B0B483C510528F780915F018F708061C9
:1017700080935F01F901E15DFE4F80818F70806190
:1017800080838AE591E00E94CD0ADF91CF911F917D
:101790000C94450BAF92BF92CF92DF92EF92FF92E3
:1017A0000F931F93CF93DF93CDB7DEB761970FB63B
:1017B000F894DEBF0FBECDBF8C0185E0F801DE01DD
:1017C0001D9601900D928A95E1F7F80140815181B3
:1017D000E2808AE5C82E81E0D82E60915D0170918B
:1017E0005E016115710509F461C190915A01209162
:1017F0005B01892F82238F3F09F458C1A380B480F5
:10180000F0905C01F501E61BF70BFF2009F4FCC02A
:1018100080915F01382F307FE83CF10508F0B2C0BD
:10182000311179C0FE2C251323C0941321C0E1107F
:101830001FC08F70806180935F010E94660BC6019C
:101840000E94CD0A80915F01F80185838F2D6196FA
:101850000FB6F894DEBF0FBECDBFDF91CF911F91C1
:101860000F91FF90EF90DF90CF90BF90AF900895D1
:10187000AB2829F0842F85238F3F09F033C180E006
:10188000F82FF170DF2E80FF3CC08091280120915D
:10189000290136E0821315C04D875E878D859E85B0
:1018A0000E942F10292F22952F702230F0F0243023
:1018B00018F59F70F1F0F8019581907FD1F4D12C4B
:1018C0001EC090E0389FF001399FF00D1124E65DB5
:1018D000FE4F6181651306C06081641303C062819D
:1018E0006E110FC001968770D5CF9F7011F08823BD
:1018F00031F3805E883018F3C8010E94CD0AFD2CB8
:10190000A5CFEE2009F4A2CF80915F018160809382
:101910005F01F12C9BCF251306C0941304C0F8017E
:10192000EE2009F48DC04D875E878D859E850E94CF
:10193000220B882319F1EE2009F180915F0180329A
:1019400070F020915A0130915B0138872F831986FE
:10195000BB86AA868C87CE0107960E94CD0A86E0B8
:10196000F801AAE5B1E001900D928A95E1F70E9495
:10197000740B0E94660BFF24F39468CFC8010E9489
:10198000CD0AF9CF311113C07A2DB98AA88A6E2DEC
:1019900089890E94260B8AE591E00E94CD0A86E0A3
:1019A000F60111928A95E9F70E94660BB2CF2513D2
:1019B0000FC094130DC0E1100BC0F8018583C8015E
:1019C0000E94CD0A86E0F60111928A95E9F73ECF92
:1019D0004D875E878D859E850E94220B882371F23C
:1019E000EE2061F280915F01803208F4B8CF20913F
:1019F0005A0130915B013A8329831B82BD82AC82FC
:101A00008E83CE010196A9CFE83CF10508F041C0D4
:101A1000FE2CEE2009F4B2CF25132AC0941328C05F
:101A200080915F0180FD1BC0982F907FC1F0F8016D
:101A30008583903F31F0982F907F905F8F70892B36
:101A40008583C8010E94CD0A86E0F801AAE5B1E0CD
:101A500001900D928A95E1F70E94660BF7CE86E021
:101A6000F801AAE5B1E001900D928A95E1F7EECE7A
:101A70004D875E878D859E850E94220B81116FCFD9
:101A800080915F01816080935F01C8010E94CD0A4F
:101A9000DDCE7A2DB98AA88A6E2D89890E94260BFF
:101AA00086E0F60111928A95E9F7D6CFEE2009F487
:101AB00065CF4D875E878D859E850E94220BF82E0F
:101AC000882309F45BCF86E0F801AAE5B1E0019034
:101AD0000D928A95E1F78AE591E00E94DA070E946B
:101AE000740BBACF81E08E25CBCE88EC90E00895C0
:101AF0001F93CF93DF93CDB7DEB72C970FB6F89433
:101B0000DEBF0FBECDBF4F83588769877A878B872B
:101B10009C87CE0107960E94CA0B882369F08A85AC
:101B20009B85892B39F04F815885842F85238F3FE2
:101B300009F071C016E05FC086E0FE013796DE0155
:101B4000119601900D928A95E1F78A859B85892BE4
:101B500089F38F81988589238F3F61F32091290133
:101B600030E0C901019687709927409128014817F4
:101B7000190671F40E94FF0A10922901109228019F
:101B800086E0EAE5F1E0DF011D928A95E9F7D2CF20
:101B900096E0929FD001939FB00D1124A65DBE4F99
:101BA000FE01319601900D929A95E1F780932901FB
:101BB0000E94450BBFCF819FC0011124865D9E4FBF
:101BC0000E94CA0B8823E9F0E09128011E9FF001D2
:101BD0001124E65DFE4F40815181628173818481D1
:101BE00095810E94350B8091280190E001968770C5
:101BF00099278093280180912801909129018913C8
:101C0000DACF2C960FB6F894DEBF0FBECDBFDF91B2
:101C1000CF911F91089569857A858B859C850E9457
:101C2000350B88CFEF92FF920F931F93CF93DF93E3
:101C30008C01892B81F0F12CEE24E394E8012196AC
:101C4000F8018491843770F4843008F05FC08130EB
:101C5000B1F08230A1F1DF91CF911F910F91FF90F0
:101C6000EF900895853709F44CC008F43DC09CE717
:101C7000980F903780F78F770E94540849C00E5F05
:101C80001F4FFE01849190E2980F983060F48770A6
:101C9000FE2D01C0FF0F8A95EAF78F2F0E94A51035
:101CA0000E94CE1002C00E94DF078F2D815030F2BB
:101CB000EFE9FFE03197F1F700C00000F7CF0E5FCA
:101CC0001F4FFE01849190E2980F983050F4877076
:101CD000FE2D01C0FF0F8A95EAF78F2F0E94AB10EF
:101CE000DFCF0E945408E1CF0E5F1F4FFE01C49169
:101CF000C150D8F28FE99FE00197F1F700C00000D2
:101D0000F7CF0E5F1F4FFE01F490CFCF0E94DF0789
:101D10008E01CBCF08950C948A0E0E948B0E609397
:101D20006E0170936F0180937001909371010C9418
:101D3000F50A08950C948D0E0F931F9300916E0178
:101D400010916F012091700130917101602B712B06
:101D5000822B932B1F910F910C948D0E0F931F9339
:101D600000916E0110916F0120917001309171010D
:101D700060237123822393231F910F910C948D0E66
:101D80000F931F9300916E0110916F0120917001CC
:101D90003091710160277127822793271F910F913E
:101DA0000C948D0E0C948A0E0C94D20E0E94D40EBC
:101DB00060936A0170936B0180936C0190936D0145
:101DC0000C94F50A60E070E0CB010C94D60E0F93F2
:101DD0001F9341E050E060E070E08A019B0104C085
:101DE000000F111F221F331F8A95D2F7C901B801B6
:101DF0001F910F910C94D60E0F931F9341E050E06A
:101E000060E070E004C0440F551F661F771F8A957D
:101E1000D2F780916A0190916B01A0916C01B09111
:101E20006D018A019B01082B192B2A2B3B2BC90121
:101E3000B8011F910F910C94D60E0F931F9341E0A0
:101E400050E060E070E004C0440F551F661F771F2C
:101E50008A95D2F7CB01BA016095709580959095DF
:101E600000916A0110916B0120916C0130916D011C
:101E700060237123822393231F910F910C94D60E1C
:101E80000F931F9341E050E060E070E004C0440F06
:101E9000551F661F771F8A95D2F780916A0190912E
:101EA0006B01A0916C01B0916D018A019B01082723
:101EB00019272A273B27C901B8011F910F910C94BC
:101EC000D60E0F931F9300916A0110916B01209120
:101ED0006C0130916D01602B712B822B932B1F9124
:101EE0000F910C94D60E0F931F9300916A011091DD
:101EF0006B0120916C0130916D016023712382236D
:101F000093231F910F910C94D60E0F931F93009162
:101F10006A0110916B0120916C0130916D01602775
:101F20007127822793271F910F910C94D60E089545
:101F3000E92FEE0F9E0F890F982F977041E001C097
:101F4000440F9A95EAF786958695869595E0899F40
:101F5000F0011124E05AFE4F30E020E070E0519192
:101F6000DF011197CB01022E02C0969587950A9446
:101F7000E2F7817081958527842385278C932F5FD5
:101F80003F4F2530310559F70895E92FEE0F9E0F89
:101F9000890F982F977086958695869525E0829F64
:101FA000F0011124E05AFE4F50E040E080E0219122
:101FB00030E0092E02C0369527950A94E2F7217089
:101FC0003327042E01C0220F0A94EAF7822B4F5FB9
:101FD0005F4F4530510559F70895BF92CF92DF9278
:101FE000EF92FF920F931F93CF93DF938C01C090DA
:101FF0006A01D0906B01E0906C01F0906D018091CE
:102000006E0190916F01A0917001B0917101C82A89
:10201000D92AEA2AFB2ACFE1D0E0BC2ED701C6019B
:102020000C2E04C0B695A795979587950A94D2F77C
:1020300080FD0EC0219788F7B12C8B2DDF91CF91B9
:102040001F910F91FF90EF90DF90CF90BF90089578
:10205000B8018C2F0E94D801019761F3EECFCF9386
:10206000DF93EC010E94ED0FBE01DF91CF910C9444
:10207000D8011F93CF93DF93EB0190912701992310
:1020800031F0CB01DF91CF911F910C942F10882359
:1020900079F0CB010E94ED0F182F682FCE010E941E
:1020A000980FBE01812FDF91CF911F910C94D80121
:1020B000CB010E94C50F182FF4CF682F809100012B
:1020C000909101010C941612682F8091000190915B
:1020D00001010C94181280910001909101010C945F
:1020E0001A12809172018595859585950895809144
:1020F00072018770089590917201977081E009F4E0
:1021000080E0089580917E01089590917E01892B51
:1021100080937E010895809590917E0198239093FD
:102120007E01089510927E01089590917D01892B82
:1021300080937D010895809590917D0198239093DF
:102140007D01089510927D01089590917C01892B65
:1021500080937C010895809590917C0198239093C1
:102160007C01089510927C01089580917301089577
:1021700008950C94B81090917301981721F08093F2
:1021800073010C94B910089580917301882329F08C
:102190001092730180E00C94B9100895E091000151
:1021A000F091010180917E018083E0910001F09126
:1021B0000101808190917D01892B8083E091000154
:1021C000F0910101808190917C01892B8083909115
:1021D0007301992381F0E0910001F0910101808168
:1021E000892B808380910001909101010E94CE1182
:1021F00081110E94C41080910001909101010C9402
:10220000BC0608950C94011198E0899F9001112457
:10221000622B609372010E94FC0E80917201859581
:10222000859585950C9402111092720180E00C94B2
:102230000211909172018095892380937201282F59
:10224000277071F4282F082E000C330B92171306F9
:1022500039F08595859585950E941D0F0C94141174
:10226000089590E080E00E942E1A21E08C3E9E4F5F
:1022700009F020E0822F089582E090E00C94261A65
:1022800083E090E00C94261ACF9384E090E00E94C3
:10229000261AC82F81E290E00E94261A982F8C2FD0
:1022A000CF910895CF93C92F682F84E090E00E94CA
:1022B000341A6C2F81E290E0CF910C94341AAB0168
:1022C000BC018FE090E00C94461AAB01BC0183E1A5
:1022D00090E00C94461A60E070E0CB010C9465111C
:1022E0006CEE7EEF90E080E00E94521A60E082E0A7
:1022F00090E00E94341A60E083E090E00E94341A7B
:1023000010926E0110926F01109270011092710183
:1023100060E084E090E00E94341A60E081E290E0A6
:102320000E94341A60E085E090E00E94341A60E078
:1023300086E090E00E94341A6FEF87E090E00E9400
:10234000341A40E050E0BA0188E090E00E94461A5A
:1023500060E08DE090E00E94341A40E050E0BA0165
:1023600088E190E00E94461A60E087E190E00E94D8
:10237000341A40E050E0BA018CE190E00E94461A25
:1023800060E080E290E00E94341A0C94FC000C940F
:102390007011682F8EE090E00C94341A9C012E5F2F
:1023A0003F4FAC01485F5F4F80E02417350709F4C9
:1023B0000895F90191919F019923B9F38F5FF5CFAA
:1023C000662349F0FC01329608962191261729F0E0
:1023D000E817F907D1F780E0089581E008959C019E
:1023E000FC0132969FEF80E04191461751F09F3FEC
:1023F00019F4411101C0982F8F5F8630A9F79F3FD4
:1024000009F40895290F311D97FD3A95F90162836A
:102410000895FC01329608962191261303C0DF012E
:1024200011971C92E817F907B9F708950C94EF116A
:102430000C940912029626E0FC0111922A95E9F704
:102440000895089508950C9422120E9423128091F9
:102450009C01843049F11092800188E190E020E4F1
:102460000FB6F894A895809360000FBE209360008B
:1024700080E00E9464010E94231283B7817F846000
:1024800083BF83B7816083BF7894889583B78E7F3D
:1024900083BF0FB6F894A8958091600088618093FF
:1024A0006000109260000FBE08950895CF930E94BF
:1024B00021120E94F5030E945512C0E08C2F0E9449
:1024C000AB03811105C0CF5FC330C1F7CF91089531
:1024D00081E0FCCF08950C946A120E94FF0A0E94CA
:1024E000B0060E9464010C946B121F921FB61F92DB
:1024F00011248F939F93AF93BF938091800181119B
:1025000013C08091920190919301A0919401B09198
:1025100095014196A11DB11D809392019093930165
:10252000A0939401B0939501BF91AF919F918F912A
:102530001F901FBE1F90189582E084BD93E095BD4B
:102540009AEF97BD80936E0008952FB7F89480910D
:10255000920190919301A0919401B09195012FBFA8
:1025600008959C014FB7F894809192019091930146
:10257000A0919401B09195014FBF821B930B0895D8
:1025800078941F921FB61F9211248F939F93AF933D
:10259000BF938091920190919301A0919401B09189
:1025A00095010196A11DB11D809392019093930115
:1025B000A0939401B0939501BF91AF919F918F919A
:1025C0001F901FBE1F90189587E797E7909301080B
:1025D0008093000888E19AE00FB6F894A89580935C
:1025E00060000FBE90936000FFCF0E9431118111F7
:1025F00002C00E94C7110E943C1180937F010E947B
:10260000441190939701809396010E944011682F86
:1026100070E090E080E00E949A0E60916A017091F3
:102620006B0180916C0190916D010C94D40E0F930D
:102630001F9341E050E060E070E08A019B0104C01C
:10264000000F111F221F331F8A95D2F7C901B8014D
:102650000E949A0E1F910F910C94FF0A8B3109F47E
:1026600061C040F58B3071F078F4863009F443C0D6
:1026700020F4853059F180E00895873009F444C092
:102680008830C9F781E00895803109F459C068F4B1
:102690008E3089F790917F01892F8B7F92FF846024
:1026A00080937F0182FD48C0EDCF863159F3893197
:1026B00049F3E1CF8A32E1F060F48732A9F020F4E7
:1026C0008E31C8F28D5111C08932A9F60E946D0178
:1026D000D9CF833438F48A33F0F5853329F0883341
:1026E00089F2C9CF833439F680E00E941713CACF2C
:1026F0000E94C711C7CF80917F01807F80937F01A7
:1027000081E080938101089590917F01892F8E7FD0
:1027100090FF816080937F0180FDB4CF817F8093A3
:102720007F01B0CF90917F01892F8D7F91FF8260D3
:1027300080937F0181FFA6CF80917F018160EFCFE1
:1027400090917F01892F877F93FF886080937F011D
:1027500083FDF2CF97CF8953C8CF80E008950C94C2
:10276000AD13CF93C82F80918101882331F0813040
:1027700099F01092810180E00DC00E948210823297
:10278000D1F78C2F0E94AD13811116C08C2F0E949F
:102790002E138170CF9108950E948210823289F3A6
:1027A0008C2F0E94AF13811105C0C43171F038F431
:1027B000CB3079F781E0EDCF81E090E0EACFC9320C
:1027C00021F0C833B9F380E0E4CF10928101FBCF50
:1027D00080918A01089508950895CF93DF93EC01C5
:1027E00081E08093E9008FEF9091E800815095FDA2
:1027F00006C095ED9A95F1F700008111F5CF809113
:10280000E80085FF14C050E040E068E070E0CE01D1
:102810000E948F158091E8008E778093E80088E011
:10282000FE01A2E8B1E001900D928A95E1F7DF91F7
:10283000CF910895089580919B01811109C00E9454
:102840001F170E947C178091E20084608093E20051
:10285000089510929B010895089508950C946D12A7
:1028600042E061EC81E00C949B1680919E018330E4
:1028700009F45FC030F48130C1F1823009F49BC0AB
:1028800008958A3009F487C08B3009F46DC089300F
:1028900009F04EC080919D01813209F049C08091BC
:1028A000A1019091A201892B09F042C08091E8001A
:1028B000877F8093E8008091E80082FF35C0909187
:1028C000F3008091F200029729F48091F1008B7F50
:1028D000813021F48091F10080938A018091E80099
:1028E0008B778093E8000C94CF1680919D01813AFC
:1028F000F9F48091E800877F8093E8008091A1013E
:102900009091A201892B61F468E082E891E070E087
:102910000E94DE158091E8008B778093E80008958F
:1029200060E090E080E0F3CF80919C018111C3CF03
:10293000089580919D01813AD9F78091A1019091EC
:10294000A201892BA9F78091E800877F8093E80096
:102950008091E80080FFFCCF80910C018093F10012
:102960008091E8008E77BDCF80919D01813201F783
:102970008091A1019091A201892BD1F68091E8006C
:10298000877F8093E8000E94CF1680919F018093FB
:102990000C010C94FF0A80919D01813249F68091CF
:1029A000E800877F8093E8000E94CF168091A00105
:1029B00080938B01089580919D01813A09F0B8CFF1
:1029C0008091E800877F8093E8008091E80080FF95
:1029D000FCCF80918B01C2CF84B7877F84BF0FB6B5
:1029E000F894A895809160008861809360001092AF
:1029F00060000FBE80E890E00FB6F894809361000D
:102A0000909361000FBE0E9401070E941F170E9451
:102A10007C178091E20084608093E20078940E94A9
:102A2000051A0E940B0782E091E00E94AB0680919C
:102A30009C01853019F00E941307F9CF0E942512DE
:102A400080919A01882399F30E945612882379F382
:102A50000E947915ECCF0C942D15292F33272330A4
:102A60003105C9F058F421303105C9F12230310562
:102A7000D9F190E080E030E020E020C02132310543
:102A800039F122323105A9F780E490E026E231E005
:102A9000672B79F713C099278130910599F000973A
:102AA00041F08230910589F0039719F7EEEBF0E0E1
:102AB00002C0EEEEF0E0849190E09F01FA013183D4
:102AC00020830895EEEDF0E0F6CFE4ECF0E0F3CFF4
:102AD00089E090E024E031E0672B59F6EFCF82E106
:102AE00090E024E131E0EACF82E290E022EF30E0B2
:102AF000E5CF80E189BD82E189BD09B400FEFDCF4B
:102B00008091D8008F7D8093D8008091E000826012
:102B10008093E0008091E00081FDFCCF0895AF92AA
:102B2000BF92CF92DF92FF920F931F93CF93DF93C9
:102B30006C01EB018A010E94EE16F82E811123C070
:102B40000115110539F0F80180819181C81BD90B5D
:102B5000C80ED91EB12CA12C2097A9F08091E800B5
:102B600085FD22C08091E8008E778093E8000115F2
:102B70001105A1F0F80180819181A80EB91EB182E2
:102B8000A08285E0F82E8F2DDF91CF911F910F91BC
:102B9000FF90DF90CF90BF90AF9008950E94EE1607
:102BA0008823D1F2F82EEFCFF60181916F01809347
:102BB000F1002197FFEFAF1ABF0ACECFFC01809141
:102BC000A3019091A40186179707A0F061157105E4
:102BD00029F49091E8009E779093E80090E06115C9
:102BE000710551F4911108C08091E80082FF34C052
:102BF00080E00895BC01F2CF80919C018823C1F14F
:102C00008530C1F18091E80083FD30C08091E800FB
:102C100082FDEACF8091E80080FFE1CF8091F30050
:102C20002091F200382F6115710519F02830310517
:102C300058F091E02830310509F090E02091E8004B
:102C40002E772093E800CBCF81918093F1006150E3
:102C500071092F5F3F4FE7CF80919C01882341F09E
:102C6000853041F08091E80083FFBECF81E0089578
:102C700082E0089583E00895FC018091A301909182
:102C8000A40186179707A0F06115710529F48091BA
:102C9000E8008E778093E80090E06115710551F4AB
:102CA000911108C08091E80082FF35C080E008954E
:102CB000BC01F2CF80919C018823C9F18530C9F114
:102CC0008091E80083FD31C08091E80082FDEACF69
:102CD0008091E80080FFE1CF8091F3002091F20025
:102CE000382F6115710519F02830310558F091E041
:102CF0002830310509F090E08091E8008E778093CC
:102D0000E800CBCF84918093F10031966150710936
:102D10002F5F3F4FE6CF80919C01882341F08530A3
:102D200041F08091E80083FFBDCF81E0089582E00B
:102D3000089583E00895982F973028F08F7080933E
:102D4000E90081E008959093E900242F762F50E068
:102D5000981731F07091EC002091ED005091F00047
:102D600021FD02C09F5FE8CF3091EB003E7F3093A2
:102D7000EB003091ED003D7F3093ED003091EB00A2
:102D800031603093EB007093EC002093ED00509392
:102D9000F0002091EE0027FDE5CF80E008958091BE
:102DA0009D0187FF13C08091E80082FF06C08091DB
:102DB000E8008B778093E80004C080919C0181112A
:102DC000F2CF089580919C018823D9F38091E80087
:102DD00080FFF8CF8091E8008E77ECCF2091E4005F
:102DE0003091E50095E6A9012091EC00822F8170D9
:102DF00020FF06C08091E80080FF06C080E00895B3
:102E00002091E80022FD1AC080919C01882389F05E
:102E1000853089F08091EB0085FD0FC02091E400A2
:102E20003091E50042175307F9F29150E1F684E042
:102E3000089582E0089583E0089581E008950E9456
:102E40008D170E949517E0EEF0E08081816080830D
:102E5000E8EDF0E080818F77808319BCA7EDB0E0CA
:102E60008C918E7F8C9380818F7E808310929B01CA
:102E700008950F931F93CF93DF930E948D170E94A5
:102E80009517C8EDD0E088818F7788838881806826
:102E9000888388818F7D888319BC10929C01109251
:102EA000980110929A011092990100EE10E0F80139
:102EB00080818B7F808388818160888342E060E0AD
:102EC00080E00E949B16E1EEF0E080818E7F80839F
:102ED000E2EEF0E080818160808380818860808381
:102EE000F80180818E7F8083888180618883DF9173
:102EF000CF911F910F910895E8EDF0E080818F7ED2
:102F00008083E7EDF0E080818160808384E082BF90
:102F100081E080939B010C943917E8EDF0E080810B
:102F20008E7F80831092E20008951092DA00109252
:102F3000E10008951F920F920FB60F9211242F9364
:102F40003F934F935F936F937F938F939F93AF9331
:102F5000BF93EF93FF938091E10082FF0BC08091BC
:102F6000E20082FF07C08091E1008B7F8093E10047
:102F70000E94041A8091DA0080FF19C08091D80065
:102F800080FF15C08091DA008E7F8093DA008091F7
:102F9000D90080FF96C080E189BD82E189BD09B476
:102FA00000FEFDCF81E080939C010E941B14809164
:102FB000E10080FF19C08091E20080FF15C0809180
:102FC000E2008E7F8093E2008091E2008061809336
:102FD000E2008091D80080628093D80019BC85E01F
:102FE00080939C010E942D148091E10084FF2BC0EE
:102FF0008091E20084FF27C080E189BD82E189BD24
:1030000089B5982F917080FFFBCF8091D8008F7D7C
:103010008093D8008091E1008F7E8093E1008091C1
:10302000E2008F7E8093E2008091E20081608093D5
:10303000E20080919801882309F449C084E08093DC
:103040009C010E942E148091E10083FF29C0809191
:10305000E20083FF25C08091E100877F8093E1003B
:1030600082E080939C01109298018091E1008E7F14
:103070008093E1008091E2008E7F8093E200809156
:10308000E20080618093E20042E060E080E00E9424
:103090009B168091F00088608093F0000E942C14B1
:1030A000FF91EF91BF91AF919F918F917F916F9120
:1030B0005F914F913F912F910F900FBE0F901F90F6
:1030C000189519BC10929C010E94291470CF809110
:1030D000E30087FD93E090939C01B3CF1F920F9282
:1030E0000FB60F9211242F933F934F935F936F93DB
:1030F0007F938F939F93AF93BF93CF93DF93EF9380
:10310000FF93D091E900DF708091EC00C82FC1706F
:1031100080FDC0E81092E9008091F000877F8093E5
:10312000F00078940E94B2181092E9008091F000AB
:1031300088608093F000CD2BCF70C093E900FF91A1
:10314000EF91DF91CF91BF91AF919F918F917F913F
:103150006F915F914F913F912F910F900FBE0F9004
:103160001F9018951F93CF93DF93CDB7DEB7AA9723
:103170000FB6F894DEBF0FBECDBF8DE991E0209170
:10318000F100FC012193CF01F1E0853A9F07B9F7E7
:103190000E9435148091E80083FF1EC180919D013B
:1031A00090919E019A3008F017C1E92FF0E0E8579E
:1031B000F54E0C94201A803899F0823809F00CC131
:1031C0008091A1018F70873008F006C18093E900DB
:1031D0008091EB0085FB882780F91092E90006C0FA
:1031E0008091990190919A01911182609091E800EB
:1031F000977F9093E8008093F1001092F100809106
:10320000E8008E77E5C0882309F4D3C0823009F046
:10321000E3C080919F018111D6C08091A1018F7080
:103220002FEF280F263008F0D7C08093E9002091B7
:10323000EB0020FFC8C0933031F48091EB00806236
:103240008093EB00C0C09091EB0090619093EB00F5
:1032500021E030E001C0220F8A95EAF72093EA00CE
:103260001092EA008091EB008860EACF8111B4C02F
:1032700010919F011F778091E3008078812B8093CC
:10328000E3008091E800877F8093E8000E94CF16DA
:103290008091E80080FFFCCF8091E30080688093FC
:1032A000E30082E0111183E080939C0195C0805877
:1032B000823008F091C080919F019091A0018C3DD7
:1032C00023E09207A1F583E08A838AE289834FB7DE
:1032D000F894DE01139620E03EE051E2E32FF0E0A7
:1032E00050935700E49120FF03C0E295EF703F5FD9
:1032F000EF708E2F90E0EA30C0F0C7968D939D93CB
:103300002F5F243159F74FBF8091E800877F80936A
:10331000E8006AE270E0CE0101960E94DE1580911D
:10332000E8008B778093E80057C0C096E7CF6091A4
:10333000A1017091A201AE014F5F5F4F0E942B155A
:10334000BC01892B09F448C09091E800977F9093C5
:10335000E80089819A810E943C16E1CF8038E1F52E
:103360008091E800877F8093E800809198018093A6
:10337000F10045CF811130C090919F01923060F5EE
:103380008091E800877F8093E800909398010E94E5
:10339000CF1680919801882311F084E005C08091B8
:1033A000E30087FDFACF81E080939C010E943014F6
:1033B00013C080919F01813079F481E0933009F04E
:1033C00080E080939A011092E9008091E800877F65
:1033D0008093E8000E94CF168091E80083FF0AC026
:1033E0008091E800877F8093E8008091EB00806205
:1033F0008093EB00AA960FB6F894DEBF0FBECDBF48
:10340000DF91CF911F9108950895CF9380919C01F2
:103410008823A1F0C091E900CF709091EC00892F32
:10342000817090FD80E8C82B1092E9008091E8003F
:1034300083FD0E94B218CF70C093E900CF91089528
:10344000EE0FFF1F0590F491E02D0994F999FECF3E
:1034500092BD81BDF89A992780B50895A8E1B0E0A2
:1034600042E050E00C945A1A262FF999FECF92BDF3
:1034700081BDF89A019700B4021639F01FBA20BD39
:103480000FB6F894FA9AF99A0FBE08950396272F6B
:103490000E94351A0E94341A252F0E94351A242FB3
:1034A0000C94351A0196272F0E94351A0C94341A61
:1034B000DC01CB01FC01F999FECF06C0F2BDE1BDF4
:1034C000F89A319600B40D9241505040B8F70895E3
:1034D000F894FFCFFB08FB08530953092809280972
:1034E00028092809A509310A400A400A9C0A280926
:1034F0002809A50A0E0B0E0B170B170B190B170B30
:10350000170B170B0E0B0E0B1E0B170B170B1E0BAF
:10351000DB180319EC190319EC1936195719EC19B2
:04352000AE19BA190D
:103524007401E813ED13EB13EC131A14019166F410
:063534009035F594F7F656
:00000001FF
